:020000040800F2
:1000000000500020712E0008392900083B29000803
:100010003D2900083F290008412900080000000090
:10002000000000000000000000000000432900085C
:100030004529000800000000472900084929000858
:10004000B92E0008B92E0008B92E0008B92E0008F4
:10005000B92E0008B92E0008B92E0008B92E0008E4
:10006000B92E0008B92E0008B92E0008B92E0008D4
:10007000B92E0008B92E0008B92E0008B92E0008C4
:10008000B92E0008B92E0008B92E0008B92E0008B4
:100090004D290008B92E0008B92E0008B92E000815
:1000A000B92E0008B92E0008B92E0008B92E000894
:1000B000B92E0008B92E0008B92E0008B92E000884
:1000C000B92E0008B92E0008B92E0008B92E000874
:1000D000B92E0008B92E0008B92E0008B92E000864
:1000E000B92E0008B92E0008B92E00080000000043
:1000F0000000000000000000000000000000000000
:0C01000000000000000000005FF808F1A3
:10010C0010B5054C237833B9044B13B10448AFF345
:10011C0000800123237010BD20010020000000008E
:10012C002C2F000808B5034B1BB103490348AFF350
:10013C00008008BD00000000240100202C2F0008C6
:10014C004FF47A7370B50D4E054630780C4AB3FBFC
:10015C00F0F31068B0FBF3F000F08AF8044650B9E5
:10016C000F2D08D8024629464FF0FF3000F040F81A
:10017C002046756070BD0120FCE700BF0000002028
:10018C00AC000020074A08B51368032043F01003A5
:10019C00136000F01BF80020FFF7D2FF02F0A4FB65
:1001AC00002008BD00200240034A044B11681B7854
:1001BC000B441360704700BFB00300200000002008
:1001CC00014B1868704700BFB0030020074A0002BB
:1001DC00D36800F4E06023F4E0631B041B0C43F0D1
:1001EC00BF6343F400330343D360704700ED00E07A
:1001FC00174B70B5DC684FF0FF36C4F30224C4F122
:10020C000705042D04F1040328BF0425062B98BF11
:10021C00002406FA05F388BF033C21EA0303A3403C
:10022C0006FA04F422EA0404002843EA0403A8BFF3
:10023C0000F160404FEA0313B8BF064ADBB2B5BF0A
:10024C0000F00F0000F56140135480F8003370BDCE
:10025C0000ED00E014ED00E00123420900F01F0066
:10026C0003FA00F0014B43F82200704700E100E074
:10027C000138B0F1807F0AD2F021064B064A586053
:10028C0082F823100020072298601A607047012022
:10029C00704700BF10E000E000ED00E02DE9F74FE3
:1002AC0000221646654BDFF8A4C1DFF8A4E14FF03D
:1002BC0001080C6808FA06F808EA0404A0457ED187
:1002CC004D68122D00F0AE8000F28780022D00F0F8
:1002DC00A6807BD8002D00F08D80012D00F09D8034
:1002EC004FF00F09FF2C93BF824606F18045083D65
:1002FC00D0F800B092BFB500D0F804B0AD0009FA48
:10030C0005F82BEA080802FA05F588BF00F1040A83
:10031C0048EA0505CAF80050D1F804A01AF0805F2D
:10032C004DD0474F26F00308BD6908F1804845F0D1
:10033C000105BD61BD6908F5803805F00105019521
:10034C0006F0030B019D4FEA8B0BD8F8085009FA05
:10035C000BF925EA09093B4DA84268D005F58065E3
:10036C00A84266D005F58065A84264D005F5806585
:10037C00A8420CBF0325042505FA0BF545EA09052F
:10038C00C8F808501D681AF4803F14BF2543A543D4
:10039C001D605D681AF4003F14BF2543A5435D60E2
:1003AC009D681AF4801F14BF2543A5439D60DD682A
:1003BC001AF4001F14BF2C4325EA0404DC60013638
:1003CC00102E7FF474AF03B0BDE8F08F032D22D054
:1003DC00112D85D1CA68043282E71B4FBD4209D06A
:1003EC0012D8DFF870904D4504D009F580394D4591
:1003FC007FF476AF8A68C2B1012A0CBFC0F81080B6
:10040C00C0F8148008226BE76545F3D07545F1D030
:10041C00DFF84490EBE7002262E7CA6860E7CA683D
:10042C0008325DE7CA680C325AE7042258E7002507
:10043C00A2E70125A0E702259EE700BF00040140CA
:10044C000010024000080140000021100000311093
:10045C000000321000001110000022100AB10161DE
:10046C0070470904FBE7C3685940C16070472DE928
:10047C00F041044686B0002860D090F8293403F08F
:10048C00FF021BB980F8282402F0AEFA254603239C
:10049C006E4655F8100B84F8293400F0D0FE0FCDC1
:1004AC000FC62B6804F10408336098E80E0020682E
:1004BC0000F0B6FE0021206800F0CBFE00212346A0
:1004CC0022460126084604F1100582F82810918670
:1004DC0001310F2982F8296082F82B00C2E90E0045
:1004EC00106402F12002F0D10022174683F8282272
:1004FC009A8601320F2A83F8297283F82B72C3F87B
:10050C003872C3F83C72C3F8407203F12003EDD18A
:10051C006E460FCD0FC62B68336098E80E0020682E
:10052C0000F099FE012384F82470206884F82934A3
:10053C0001F03CF9002006B0BDE8F0810120FAE79B
:10054C0090F8283410B5012B04460ED0012180F808
:10055C00281402F07CFB206801F026F9206800F0DA
:10056C0066FE002084F8280410BD0220FCE790F8F9
:10057C00282410B5012A04460BD0012280F8282427
:10058C0084F82410006801F009F9002084F828048C
:10059C0010BD0220FCE738B5044648B2002801F033
:1005AC007F05B5BF04EB451104EB4111283101F572
:1005BC000A71C00F0D704870CB7094F828340A6122
:1005CC00012B09D00123206884F8283400F062FE46
:1005DC00002084F8280438BD0220FCE74BB2002B25
:1005EC0001F07F02B5BF00EB421100EB4111283145
:1005FC0001F50A71DB0F10B50A704B7090F82834B6
:10060C000446012B09D0012380F82834006800F03F
:10061C0095FF002084F8280410BD0220FCE770B57B
:10062C00002601F07F014D01441984F8281205F5CC
:10063C000A710144C4F83C22C4F84032C4F8446244
:10064C0084F82962006801F0C7F8304670BD01F0EB
:10065C000F0100EB4111B1F84402704701F07F012A
:10066C0070B54D014419C4E90F230026012384F809
:10067C00281005F128010144666484F829300068CB
:10068C0001F0AAF8304670BD2DE9F3470446006826
:10069C0001F08EF8000400F19680206801F088F8D3
:1006AC0041050FD522682046B2F8443023F480630C
:1006BC001B041B0CA2F8443002F0CFF90021204699
:1006CC00FFF755FF206801F073F8470408D522683E
:1006DC00B2F8443023F480431B041B0CA2F84430C2
:1006EC00206801F065F8860408D52268B2F8443019
:1006FC0023F400531B041B0CA2F84430206801F0B7
:10070C0057F8C5041CD522682046B2F8403023F0B7
:10071C0004031B041B0CA2F84030B2F8403023F049
:10072C0008031B041B0CA2F8403002F0B9F9226834
:10073C00B2F8443023F480531B041B0CA2F8443051
:10074C00206801F035F800051BD52068B0F8403062
:10075C0043F00803A0F84030B0F8443023F40063B1
:10076C001B041B0CA0F84430B0F8403043F00403D9
:10077C00A0F8403001F01CF8C10402D4204602F06D
:10078C007FF9206801F014F882050BD52268204609
:10079C00B2F8443023F400731B041B0CA2F8443051
:1007AC0002F057F9206801F003F8C30508D5226858
:1007BC00B2F8443023F480731B041B0CA2F84430B1
:1007CC0002B0BDE8F0870023C04FDFF80483DFF8E8
:1007DC000493ADF80430ADF806302068B0F844301E
:1007EC009BB2ADF804301B047FF557AFBDF8045035
:1007FC0015F00F0540F0A680BDF80410038811F029
:10080C00100125D13B400380B0F8503094F82820DB
:10081C0003EBC20300EB4300D0F80434E26BC3F3E8
:10082C00090363641344E363204602F00BF994F864
:10083C002430002BD1D0226C002ACED194F8243055
:10084C00216843F08003A1F84C3084F82420C4E7DD
:10085C009BB2ADF80630BDF806301A051ED5B0F8BF
:10086C00503094F8282204F22C4103EBC20300EB25
:10087C004303D3F80C34B4F82C22C3F30903C4F8A3
:10088C00443201F075F822682046138823F0700377
:10089C001B051B0D138002F0C7F89EE7BDF8063050
:1008AC001B049AD5038823F070031B051B0D0380D2
:1008BC00B0F8503094F8282203EBC20300EB43034A
:1008CC00D3F80C34C3F30903C4F8443263B1B4F85D
:1008DC002C22D4F83C1201F04BF8D4F83C32D4F86A
:1008EC0044221344C4F83C320021204602F0A2F802
:1008FC002268D4F83852B2F850103E2D01F106019E
:10090C0002F5806016D9C5F34F13EE0604BF03F150
:10091C00FF339BB249EA83239BB240F81130138812
:10092C0008EA030383F4405343F4004343F0800389
:10093C00138052E7C5F34F03ED0744BF01339BB25D
:10094C009B02E9E730F825309BB2ADF80630BDF8D4
:10095C00063019043DD530F825304FEA451A23F0FE
:10096C0070031B051B0D20F8253004EB0A0191F8D0
:10097C00323200F58062002B6CD1B0F8503091F817
:10098C002862063303EBC60352F81360C6F309065C
:10099C0036B1B1F82C223346D1F83C1200F0E8FF06
:1009AC0004EB0A01D1F84432D1F83C223344C1F8AB
:1009BC004432D1F840323244C1F83C221BB1D1F858
:1009CC00380286427BD2A2449AF82812204602F0C2
:1009DC0031F8BDF806301A067FF5FFAE20686E01BF
:1009EC0030F82530A1193B4020F8253091F83230F1
:1009FC0000F580620235002B6ED1B0F8503091F8C2
:100A0C0028C0023303EBCC0352F8133004EB45152A
:100A1C00C3F309036B601BB18A8DC96B00F0CDFE6B
:100A2C0022682644B2F8503096F82810023303EBB3
:100A3C00C10302EB4303D3F80024F36BC2F30902A6
:100A4C0072641A44336CF2632046002B79D101F0A6
:100A5C00F9FFC2E691F8283230F82360DB0016F477
:100A6C00804FB0F8506033441ED0023352F81360FC
:100A7C00C6F3090636B13346B1F82E22D1F83C1232
:100A8C0000F076FF04EB0A0393F82812226832F880
:100A9C00213023F0F0031B051B0D43F4004343F0FE
:100AAC00C00322F821307BE7063352F81360C6F3FB
:100ABC000906002EE6D03346B1F83022DEE791F875
:100ACC0028122046FFF7ABFD83E700BF0F8FFFFF17
:100ADC008FBFFFFF0080FFFF91F8283030F823C054
:100AEC00DB001CF0400FB0F850C063441DD0023343
:100AFC0052F8133004EB4515C3F309036B601BB1BB
:100B0C00CA8DC96B00F059FEA31993F828102268FE
:100B1C0032F8213023F0F0031B051B0D43F4404346
:100B2C0043F0800322F821307AE7063352F8133071
:100B3C0004EB4515C3F309036B60002BE4D00A8E5C
:100B4C00DFE7FFF78BFD48E6012238B54BB2002BEF
:100B5C0001F07F05B5BF00EB451100EB41112831C9
:100B6C0001F50A71DB0F8A700D704B7090F8283408
:100B7C00044693420ED080F82824006800F0A4FDAF
:100B8C0025B904F22C41206800F015FE002084F8F1
:100B9C00280438BD0220FCE738B500244BB2002BEA
:100BAC0001F07F02B5BF00EB421100EB411128317F
:100BBC0001F50A71DB0F8C700A704B7090F82834B9
:100BCC000546012B09D0012380F82834006800F079
:100BDC00A7FD204685F8284438BD0220FCE790F894
:100BEC00283410B5012B044610D0012380F828348A
:100BFC000B06006807D501F07F0100F046FB0020D2
:100C0C0084F8280410BD00F042FBF8E70220F9E755
:100C1C0011F0800F1BBF01F07F0100EB411000EBC6
:100C2C004110283008BF00F50A7099B21AB98272C7
:100C3C0081800020704701221B0C8272C1800381CD
:100C4C00F7E7000003682DE9F341DB07054610D4F4
:100C5C002B689F075ED42B68190700F195802B68D1
:100C6C005A0700F1BF80EA69002A40F02D8100206C
:100C7C0014E0904C636803F00C03042B07D06368FA
:100C8C0003F00C03082B0CD16368DE0309D5236831
:100C9C009C03DDD56B68002BDAD1012002B0BDE8D6
:100CAC00F0816B68B3F5803F10D1236843F4803337
:100CBC002360FFF785FA064623689803C8D4FFF72C
:100CCC007FFA801B6428F7D90320E7E79BB92368D8
:100CDC0023F480332360236823F480232360FFF7FD
:100CEC006FFA064623689903B2D5FFF769FA801BA1
:100CFC006428F7D9E8E7B3F5A02F236803D143F4B0
:100D0C0080232360D1E723F480332360236823F40A
:100D1C008023CDE7674C636813F00C0F07D0636832
:100D2C0003F00C03082B10D16368DA030DD423688D
:100D3C009B0702D52B69012BAFD123686A6923F07D
:100D4C00F80343EAC203236085E72A695A4B6AB168
:100D5C0001221A60FFF734FA064623689F07ECD489
:100D6C00FFF72EFA801B0228F7D9ADE71A60FFF7C0
:100D7C0027FA0646236898077FF56DAFFFF720FA30
:100D8C00801B0228F6D99FE7AA694A4C4B4BDAB173
:100D9C0001221A60FFF714FA0646636A9B070DD509
:100DAC004FF4FA52464B1B68B3FBF2F3019300BFAE
:100DBC00019B5A1E0192002BF9D150E7FFF700FA64
:100DCC00801B0228E9D97FE71A60FFF7F9F906467C
:100DDC00636A9F077FF543AFFFF7F2F9801B022888
:100DEC00F6D971E7334CE369D80024D40127E369C1
:100DFC0043F08053E361E36903F080530093009B5D
:100E0C00304E3368D90518D5EB68012B26D1236AEF
:100E1C0043F001032362FFF7D3F941F28836804691
:100E2C00236A9B073FD5002F3FF41DAFE36923F0E6
:100E3C008053E36117E70027E2E7336843F48073DC
:100E4C003360FFF7BDF980463368DA05DCD4FFF771
:100E5C00B7F9A0EB08006428F6D935E7ABB9236ADB
:100E6C0041F2883823F001032362236A23F0040340
:100E7C002362FFF7A5F90646236A9807D3D5FFF737
:100E8C009FF9801B4045F7D91EE7052B236A03D138
:100E9C0043F004032362BAE723F001032362236ABD
:100EAC0023F00403B6E7FFF78BF9A0EB0800B04280
:100EBC00B6D909E7001002400000424280044242C9
:100ECC00AC00002000700040224C636803F00C035F
:100EDC00082B3FF4E2AE00231F4E022A33602BD1C5
:100EEC00FFF76EF90746236899011FD42B6AB3F5F7
:100EFC00803F05D16268A96822F400320A4362601F
:100F0C00696A62680B4322F4741213436360012311
:100F1C003360FFF755F9054623689A013FF5A7AEF4
:100F2C00FFF74EF9401B0228F6D9CDE6FFF748F93A
:100F3C00C01B0228D7D9C7E6FFF742F9054623683C
:100F4C009B017FF594AEFFF73BF9401B0228F6D9C5
:100F5C00BAE600BF001002406000424230B5184BA8
:100F6C0087B002AC03F110052246186859680833A3
:100F7C0003C2AB421446F7D140F201231149ADF83C
:100F8C0004304B6803F00C02082A17D1C3F38342D8
:100F9C0006A80244DB0312F8102C0CD54B680A4847
:100FAC00C3F34043504306AA134413F8143CB0FB5C
:100FBC00F3F007B030BD05485043FAE70248F8E7B4
:100FCC00442F00080010024000127A0000093D0076
:100FDC00534A2DE9F0411368054603F007038B4291
:100FEC000E4628D329688C0732D4CA0745D44C4AFC
:100FFC00136803F00703B3427FD82A68494C12F0F8
:10100C00040F40F08580130706D563682A6923F422
:10101C00605343EAC2036360FFF7A0FF6368424A70
:10102C00C3F30313D35CD840404B18600020FFF788
:10103C0087F800200AE0136823F007030B431360C2
:10104C00136803F007038B42CCD00120BDE8F0817C
:10105C00344B11F0040F1EBF5A6842F4E0625A6020
:10106C00080742BF5A6842F460525A605A68A8682E
:10107C0022F0F00202435A60B7E76A68294C012A51
:10108C0023681BD113F4003FDFD0636841F288382A
:10109C0023F0030313436360FFF792F86B68074672
:1010AC00012B13D1636803F00C03042B9FD0FFF7C3
:1010BC0087F8C01B4045F5D90320C7E7022A02D1A7
:1010CC0013F0007FE0E713F0020FDDE7022B0FD1E6
:1010DC00636803F00C03082B89D0FFF771F8C01B71
:1010EC004045F5D9E8E7FFF76BF8C01B4045E3D85E
:1010FC00636813F00C0FF6D179E7136823F007033C
:10110C0033431360136803F00703B3429DD174E7B4
:10111C006368E96823F4E0630B43636073E700BF23
:10112C0000200240001002406B2F0008AC00002091
:10113C0003682DE9F341D907054620D5354CE36901
:10114C00DA0032D40127E36943F08053E361E369A9
:10115C0003F080530193019B2F4E3368DB0526D59A
:10116C00236A13F4407336D1236A6A6823F44073FC
:10117C00134323621FB1E36923F08053E3612868B2
:10118C00830706D5234AA968536823F440430B43CD
:10119C00536010F010001BD01E4AE9685368002001
:1011AC0023F480030B43536012E00027D4E7336829
:1011BC0043F480733360FFF703F880463368D80537
:1011CC00CED4FEF7FDFFA0EB08006428F6D903206F
:1011DC0002B0BDE8F0816A6802F440729A42C3D052
:1011EC0001200E4A236A1060002023F44071106025
:1011FC002162D907B8D5FEF7E3FF41F288380646DD
:10120C00236A9A07B0D4FEF7DBFF801B4045F7D961
:10121C00DDE700BF00100240007000404004424275
:10122C0084B001A880E80E0004B000207047B0F82C
:10123C00403043F43F43A0F8403000207047B0F8F2
:10124C00403023F474535B045B0CA0F84030002056
:10125C0070470020704784B010B503AC84E80E00D2
:10126C00BDE810400123A0F840300023A0F8403026
:10127C00A0F84430A0F85030B0F8402004B042F44C
:10128C003F42A0F8402018467047002070470020CD
:10129C007047000070B5CA780B78032A0DD8DFE8C8
:1012AC0002F0025A4A5130F8232022F4EC4222F088
:1012BC00700242F4007220F8232040F60F720C7872
:1012CC0030F8243044F4004545F0800513402B439E
:1012DC0020F824308C7A00F580650B78002C40F0D7
:1012EC0082808C884E7864086400DB00E6B3B0F82A
:1012FC005060334445F813400C7830F824305D06C8
:10130C0008D530F824301A4042F4004242F0C002B2
:10131C0020F824200A7830F8223023F4E04323F01C
:10132C00400383F0200343F4004343F0800320F890
:10133C002230002070BD30F8232022F4EC4222F041
:10134C007002B8E730F8232022F4EC4222F070024D
:10135C0042F4C062AFE730F8232022F4EC4222F0D2
:10136C00700242F48062A6E7B0F8502013440433B4
:10137C0045F81340B0F850200C690B7806323E2C1F
:10138C0002EBC30227D9C4F34F16E30604BF06F1E0
:10139C00FF339EB2684B43EA86239BB245F812306A
:1013AC000A7830F822305C040BD530F8223023F068
:1013BC00F0031B051B0D43F4404343F0800320F85E
:1013CC0022300A7830F8223023F4804323F0700363
:1013DC0083F44053A7E7C4F34F03E60744BF01333C
:1013EC009BB29B02D9E730F8234024F4F87424050F
:1013FC00240D44F4014444F0800420F82340B0F858
:10140C0050400B7804EBC304CB885B085B0045F8B9
:10141C001430B0F850300C78043303EBC4030C894F
:10142C006408640045F813404B780C78002B43D1CA
:10143C0030F824305B0408D530F824301A4042F4DC
:10144C00404242F0800220F824200A7830F8223002
:10145C005E060BD530F8223023F0F0031B051B0D74
:10146C0043F4004343F0C00320F822300A7830F8EC
:10147C00223023F0F0031B051B0D43F4004343F013
:10148C00C00320F8223048F280020C7830F8243067
:10149C0023F4804323F0700383F44053134320F868
:1014AC002430097830F8213023F4E04323F0400352
:1014BC001A4320F821203CE730F824305D0408D58D
:1014CC0030F824301A4042F4404242F0800220F8B6
:1014DC0024200A7830F822305B060BD530F8223005
:1014EC0023F0F0031B051B0D43F4004343F0C00332
:1014FC0020F822300A7830F8223023F0F0031B0554
:10150C001B0D43F4404343F0800320F8223048F293
:10151C0080020C7830F8243023F4E04323F04003AD
:10152C00134320F82430097830F8213023F4804319
:10153C0023F07003BCE700BF0080FFFF10B58C7A6E
:10154C004A780B78BCBBF2B130F8232052060BD58D
:10155C0030F8232022F0F0021205120D42F4004262
:10156C0042F0C00220F823200A7830F8223023F011
:10157C00C0031B051B0D43F4004343F0800320F80C
:10158C002230002010BD30F8232054040BD530F845
:10159C00232022F0F0021205120D42F4404242F0D8
:1015AC00800220F823200A7830F8223023F0F00350
:1015BC009B049B0CDFE7002A44D130F82320520413
:1015CC000BD530F8232022F0F0021205120D42F454
:1015DC00404242F0800220F823200A7830F8223072
:1015EC005C060BD530F8223023F0F0031B051B0DE5
:1015FC0043F4004343F0C00320F822300A7830F85B
:10160C00223023F0F0031B051B0D43F4004343F081
:10161C00C00320F8223048F280020C7830F82430D5
:10162C0023F4804323F07003134320F8243009780B
:10163C0030F8213023F4E04323F040031A4320F820
:10164C0021209EE730F8232052040BD530F82320BC
:10165C0022F0F0021205120D42F4404242F08002D8
:10166C0020F823200A7830F822305B060BD530F8AE
:10167C00223023F0F0031B051B0D43F4004343F011
:10168C00C00320F822300A7830F8223023F0F0031F
:10169C001B051B0D43F4404343F0800320F822301C
:1016AC0048F280020C7830F8243023F4E04323F025
:1016BC004003134320F82430097830F8213023F408
:1016CC00804323F07003B9E70A787AB9038823F4CE
:1016DC00804323F0400383F4805383F0100343F4DE
:1016EC00004343F080030380002070474B7873B1B4
:1016FC0030F8223023F4E04323F0400383F010034E
:10170C0043F4004343F0800320F82230ECE730F838
:10171C00223023F4804323F0700383F48053EFE7EB
:10172C004B780A7803B330F822305B060BD530F8CF
:10173C00223023F0F0031B051B0D43F4004343F050
:10174C00C00320F822300A7830F8223023F4E0432A
:10175C0023F0400383F0300343F4004343F0800351
:10176C0020F822300020704730F822305B040BD573
:10177C0030F8223023F0F0031B051B0D43F44043DB
:10178C0043F0800320F822300A7830F8223023F41A
:10179C00804323F0700383F44053DDE711B98023B9
:1017AC00A0F84C3000207047002070470020704794
:1017BC00B0F84400704700207047013300F580609A
:1017CC005B1000EB420203B9704731F8020B013B8E
:1017DC0022F8040BF7E70000F8B54A780546012A11
:1017EC000E468B690C69887A59D1A34299BF0022A5
:1017FC001C461B1B8B6198BF8A61A3B2496905F516
:10180C008067E0B9B2882846FFF7D7FFB5F85030AB
:10181C003278023303EBC20347F81340327835F8C1
:10182C00223023F4E04323F0400383F0300343F4ED
:10183C00004343F0800325F822300020F8BD3278B5
:10184C0035F82200D20010F0400FB5F850000244D9
:10185C0002F1020247F81240284614BF3289F2887E
:10186C00FFF7ABFF7378327863B935F8223023F089
:10187C00F0031B051B0D43F4004343F0C00325F894
:10188C002230CBE7012BC9D135F8223023F0F003FD
:10189C001B051B0D43F4404343F08003EFE7A342C9
:1018AC0093BF00211B1B8B611C4698BFB161337821
:1018BC00F8B9B5F85020063202EBC3023E2C05F500
:1018CC0080603FD9C4F34F11E40604BF01F1FF332C
:1018DC0099B2264B43EA81239BB240F812303278FE
:1018EC0035F8223023F4804323F0700383F4405303
:1018FC009DE7B2B9B5F850203E2C02F1020202EB82
:10190C00C30205F5806015D9C4F34F11E30604BF7B
:10191C0001F1FF3399B2154B43EA81239BB240F896
:10192C00123073783178ABB9B5F85020063202EB2F
:10193C00C102C3E7C4F34F03E70744BF01339BB2B3
:10194C009B02EBE7C4F34F03E10744BF01339BB2A7
:10195C009B02C1E7012BC2D1B5F85030023303EB27
:10196C00C10305EB4303C3F80044B8E70080FFFF55
:10197C0010B50024013300F580605B1000EB4202CF
:10198C009C4200D110BD52F8240021F814000134FF
:10199C00F6E7000020230380004870470800002071
:1019AC002023038000487047280000202023038058
:1019BC0000487047480000200A2303800048704705
:1019CC0068000020037C10B50446C3B94FF40073C3
:1019DC000222012101F0AEF84FF4007302228121A2
:1019EC00204601F0A7F84FF41B7001F02BF9C4F856
:1019FC00180258B1204600F0BBF8002010BD40235F
:101A0C000222012101F096F84023E7E70120F5E7D7
:101A1C0010B50446012101F09DF88121204601F00A
:101A2C0099F8204600F0CCF8D4F8180220B101F057
:101A3C000DF90023C4F81832002010BD2DE9F04137
:101A4C000B78064613F060040D46D0F818822DD0A2
:101A5C00202C4AD14A78FE2A05D0FF2A19D000F052
:101A6C006AFE02241FE04C8884B9CF88012F0DD167
:101A7C001A060BD5D0F81C329B6998473A46C8F821
:101A8C0000004146304600F07DFE0CE02946304611
:101A9C00E5E74A88002AF9D1CC88002CF6D11B0640
:101AAC00F4D400F082F82046BDE8F0814F780A2F7C
:101ABC001DD00B2F1FD0012FF5D1097901F058F84B
:101ACC002979304601F046F895F90430002B337C27
:101ADC0017DAA3B94FF4007302228121304601F0CA
:101AEC0029F82979304600F013F90024DBE70122AC
:101AFC0008F10401C7E78B78C8F80430D3E740231A
:101B0C00EAE723B94FF4007302223946E6E7402393
:101B1C00FAE708B500F076F8002008BD08B500F02B
:101B2C008DF8002008BD09B1C0F81C1200207047C8
:101B3C0070B5D0F81842054694F818323BB9D4F871
:101B4C00143223B1637A13B9012101F01FF88121FA
:101B5C00284601F01BF8637A022B08D104F50372B6
:101B6C002846BDE870401F23012101F057B870BD15
:101B7C0070B50446D0F8185200202881A5F85C02F4
:101B8C00D4F81C321B6898470121204600F0F0FF66
:101B9C008121204600F0ECFF05F503722046BDE8DC
:101BAC0070401F23012101F039B84FF48073D0F835
:101BBC001822012113811F2302F5037201F02EB8A4
:101BCC000022D0F818321A727047000070B50C4B16
:101BDC00D0F818420546C4F82C32002384F8381289
:101BEC00237204F50B720D23812101F009F804F521
:101BFC0003722846BDE870401F23012101F00EB886
:101C0C005553425310B5D0F8183204461A7A022AAA
:101C1C0003D001D3042A0ED910BD03F21B2293F872
:101C2C00191200F09FF80028F6DA01212046BDE8D1
:101C3C001040FFF7CBBF0021F9E7000070B5D0F8DA
:101C4C0018420546267A16B1012E56D070BDD4F82E
:101C5C0010320121C4F83032D4F81432C4F83432C2
:101C6C0000F0EAFF1F2894F819120BD1D4F80C22BB
:101C7C00264B9A4206D1012904D894F81A32013B1A
:101C8C000F2B0BD920230522284600F08FFA0223B4
:101C9C0063722846BDE87040FFF74ABF04F21B226E
:101CAC00284600F05FF80028237A07DA052BF0D1DC
:101CBC0001212846BDE87040FFF788BF013B022B8D
:101CCC00C4D961890029F4D0D5F818222846D2F855
:101CDC00143282F83862994228BF1946D2F834324D
:101CEC005B1AC2F83432042313728BB204F10C0267
:101CFC008121BDE8704000F083BF04F21B2294F8F0
:101D0C00191200F02FF80028A0DAD1E755534243FE
:101D1C0010B5D0F81842637A022B05D1812100F05E
:101D2C0035FF0023637210BD0A06FCD5012BFAD0D7
:101D3C00BDE810400121FFF749BF10B5D0F81802DB
:101D4C00120290F85D3200EBC3040133DBB2042BBA
:101D5C0008BF002384F83C12C4F8402280F85D329E
:101D6C0010BD00002DE9F743137805461E2B0F46D6
:101D7C0090460FD013D8122B00F0AD8005D8002B55
:101D8C005CD0032B76D0202207E21A2B00F0C28005
:101D9C001B2BF8D10024D5F818325C8166E0282B77
:101DAC0000F0058125D8232B00F0D280252BEAD119
:101DBC00D0F81862D0F81C3206F25E225B6806F589
:101DCC001871384698470446002840F0D680D6F85B
:101DDC0060323082013B1A0E32731A0C7273F37339
:101DEC001A0AB6F85E32B2731A0AF374B274082384
:101DFC00DBE02F2B00F0BB815A2B00F09A802A2BB2
:101E0C00C1D1D0F81862337A002B40F0728196F968
:101E1C001832002BB7DBD0F81C3208469B68984769
:101E2C00002840F0AA80D5F81C323846DB68984769
:101E3C000446002800F02F8127229FE0D0F818627A
:101E4C00D6F81432002B9ED1D0F81C3208469B6871
:101E5C009847044648B13A2202212846FFF76DFF05
:101E6C00052333724FF0FF3400E07081204603B03D
:101E7C00BDE8F083D0F81832002003F10C0203F116
:101E8C001E0102F8010B8A42FBD170221A730C223C
:101E9C0093F85D12DA7493F85C22914212D003EB42
:101EAC00C20191F83C4201329C7391F84142D2B28A
:101EBC001C7691F84012042A597614BF83F85C22E0
:101ECC0083F85C0212225A8198F80420122A98BFD7
:101EDC005A810024CAE798F80130D0F81822DB07A1
:101EEC0015D4D0F81C32D969242303FB07173B798E
:101EFC0098F8041005338B4228BF0B465381002BF6
:101F0C00E7D0013B9BB2F85CD1180873F7E70723C5
:101F1C00A34FF3E70822D0F81832A2495A8103F1F3
:101F2C0013020B3311F8010D02F801099A42F9D191
:101F3C00CFE70822D0F818329B495A8103F11302DB
:101F4C000B3311F8010D02F801099342F9D1C0E7E6
:101F5C000021D0F8186206F10C0306F1180203F800
:101F6C00011B9342FBD1D5F81C320DF102025B68C8
:101F7C0001A938469847044618B13A22022128464E
:101F8C00FDE00823F373019B7075013B1A0E32744C
:101F9C001A0C7274F3741A0A02233375BDF80230EA
:101FAC00B274F3751A0A0C23B27573815EE7D0F81C
:101FBC001842237A6BBB94F91832002BBFF6E3AEB0
:101FCC00D0F81C3208469B6898470028D5D1D8F821
:101FDC000220D5F8181212BAC4F86422B8F80730E7
:101FEC00D1F860125BBA9BB298188842C4F8683278
:101FFC0000F2D28002212172B4F85E124A434B43A4
:10200C00C4F86422D4F81422C4F8683293427FF4E2
:10201C00BAAE4FF40073D5F818626381D6F8683203
:10202C00B6F85E22B3F5007F28BF4FF400739846D4
:10203C00B3FBF2F3D6F86412D5F81C0206F10C04CB
:10204C00D0F81090B1FBF2F29BB221463846C8474B
:10205C00002802DA1122042191E71FFA88F32246A4
:10206C008121284600F0CCFDD6F86432D6F86842BF
:10207C004344C6F86432D6F83432A4EB0804A3EB1C
:10208C000803C6F86842C6F83432002C7FF421AF3E
:10209C0003233372EAE6D8F8021009BAC6F86412C0
:1020AC00B8F807305BBA9AB2D5F818328818D3F85A
:1020BC006032C6F8682298426ED8B6F85E32594340
:1020CC005343D6F81422C6F864129342C6F8683209
:1020DC007FF459AEB3F5007F4FF0010128BF4FF4E8
:1020EC00007331729BB206F10C02284600F096FD8B
:1020FC00BCE6D6F86842B6F85E22B4F5007F28BF7D
:10210C004FF40074B4FBF2F3D6F86412D0F81C024E
:10211C0006F10C08D0F81490B1FBF2F29BB24146D8
:10212C003846C847002801DA032294E7D6F864320F
:10213C00D6F834222344C6F86432D6F868321B1B16
:10214C00141BC6F86832C6F8344223B9002128465D
:10215C00FFF73CFDBDE6B3F5007F28BF4FF40073DD
:10216C0042469BB20121284600F058FDB1E6547856
:10217C00D0F8183214F0020404D024220521FFF701
:10218C00DCFD6FE6D3F86412B3F868220A44D3F886
:10219C0060128A427FF601AE21220521EFE600BFD4
:1021AC00642F0008642F00085C2F000810B5D0F8CD
:1021BC0018021B0290F85D1200EBC1040131C9B288
:1021CC000429C4F8403208BF002384F83C2214BF11
:1021DC0080F85D1280F85D3210BD08B580B1D0F882
:1021EC00143213B10023C0F8143209B1C0F8101224
:1021FC000123027080F8FC3100F056FC002008BD71
:10220C000220FCE719B1C0F814120020704702201C
:10221C00704708B500F080FC002008BD08B5D0F868
:10222C0014320BB9022008BD1B6898470028FAD05D
:10223C00F8E708B5D0F814325B689847002008BD61
:10224C0038B500F502750446284600F060FA012303
:10225C0094F80812C4F8F431B4F80E32C4F8F8311A
:10226C0001F01F03012B0ED007D3022B10D001F06D
:10227C008001204600F08AFC03E02946204600F04D
:10228C00D5F8002038BD2946204600F0C9F9F8E7FA
:10229C002946204600F0DCF9F3E738B5044615462C
:1022AC0011BBD0F8F431032B0FD1D0F80C31D0F88E
:1022BC00102193420BD99B1A9A4228BF1A46C0F898
:1022CC000C3192B2294600F072FA002038BDD0F8D9
:1022DC0014321B6923B190F8FC21032A00D19847D2
:1022EC00204600F06CFAF0E7D0F814329B69002B12
:1022FC00EBD090F8FC21032AE7D19847E5E770B5BD
:10230C00134604460E4600293DD1D0F8F421022A8A
:10231C000FD1D0E90752954214D9AA1AC2611946B5
:10232C0092B200F03CFA33461A461946204600F0A9
:10233C0075FC94F80032012B02D1002384F8003292
:10234C00002070BD8369B3FBF2F502FB153565B94E
:10235C009A420AD8D0F8F821934206D22A4600F0C5
:10236C001EFAC4F8F8512B46DEE7D4F81432DB68B9
:10237C002BB194F8FC21032A01D120469847204622
:10238C0000F028FAD5E7D0F814325B69002BD7D0CF
:10239C0090F8FC21032AD3D19847D1E7002238B515
:1023AC00044640251146402300F0C4FB2B46C4F8DC
:1023BC00105100228021204600F0BCFB012384F840
:1023CC00FC31D4F8183225622BB1D4F814322179AF
:1023DC005B6820469847002038BD01740020704788
:1023EC0090F8FC3180F8FD31042380F8FC3100209A
:1023FC00704790F8FD3180F8FC310020704708B52B
:10240C0090F8FC21032A04D1D0F81432DB6903B113
:10241C009847002008BD10B50446802100F0B6FB9B
:10242C002046BDE81040002100F0B0BB37B54B781A
:10243C0004460D46092B76D8DFE813F0C900E500F9
:10244C007500D90075006D000A007500B9008D008B
:10245C004B881A0A013A062A65D8DFE802F0041CF8
:10246C00296464495200D0F810321B680DF1060142
:10247C00207C9847BDF80620002A67D0EB88002BFB
:10248C0064D09A4228BF1A460146ADF80620204671
:10249C0000F078F95AE0027CD0F8143232B99B6A19
:1024AC000DF10600984702234370E3E7DB6AF7E778
:1024BC00DBB2052B37D8DFE803F003070B0F13173C
:1024CC00D0F810325B68D1E7D0F810329B68CDE7BA
:1024DC00D0F81032DB68C9E7D0F810321B69C5E7B9
:1024EC00D0F810325B69C1E7D0F810329B69BDE7B8
:1024FC00037CC3B9D0F814320DF106005B6B98471E
:10250C00B8E7037C7BB9D0F814320DF106001B6BD5
:10251C0098470723C8E78B882BB9CB881BB990F851
:10252C00FC31032B03D12046FFF775FF0EE08D78AD
:10253C0005F07F0580F8FE51294600F053FB20463C
:10254C0000F03DF92DB1022384F8FC31002003B0DA
:10255C0030BD0123F8E78978304D01292970E2D884
:10256C0090F8FC31022B0CD0032BDCD1B1B9022337
:10257C00416080F8FC31FFF75CFE204600F01FF94B
:10258C00E4E70029F9D001210323416080F8FC31F4
:10259C002046FFF743FE0228EFD1C4E7416801292A
:1025AC00EBD0C9B2FFF745FE29786160F0E7CA8825
:1025BC00012AB8D190F8FC31022B03D0032BB2D1F5
:1025CC00011D64E70146002341F8083F5FE790F8DE
:1025DC00FC31023B012BA6D80123C360D0F8043296
:1025EC000BB10323C360022204F10C014FE74B88AB
:1025FC00012BABD1C4F80432D4F8143229469B68B1
:10260C0020469847B9E790F8FC31023B012B8AD859
:10261C004B88012B9AD10023ECE700BF3C01002032
:10262C0038B590F8FC310446032B0D460DD10B79CF
:10263C00012B0AD8D0F814329B689847EB8813B951
:10264C00204600F0BCF8002038BDFFF7E4FEFAE7A6
:10265C0038B50B78044603F06003202B0D4605D1EA
:10266C00D0F814329B689847002038BD6A788B8864
:10267C00012AD9B21CD029D3032AF5D190F8FC3108
:10268C00022B3DD0032B03D02046FFF7C4FEEBE713
:10269C006B881BB94A0601D000F078FAD4F81432D2
:1026AC0029469B6820469847204600F088F8DBE7CF
:1026BC0090F8FC31022B23D0032BE5D16B88002B37
:1026CC00D2D14B06F0D000F06FFAE7E790F8FC217E
:1026DC00022A15D0032AD7D101F07F051B0600EB87
:1026EC0005154CBF143505F5827500F06BFA60B119
:1026FC0001232B6002222946204600F043F8B3E761
:10270C004A06B1D000F042FAAEE72860F2E70B7847
:10271C0003704B784370CA788B7803EB02234380A9
:10272C004A790B7903EB02238380CA798B7903EB0B
:10273C000223C380704710B50446802100F026FAAE
:10274C002046BDE81040002100F020BA30B588B119
:10275C0005462B1A15F8014BDBB2002CF9D10133CD
:10276C005B0013800B7003234B700223013810F8AD
:10277C00015F05B930BD5A1CCD54D2B20233DBB265
:10278C008C54F4E71346022210B5C0F8F421C0E9CA
:10279C0006330A46002100F033FA002010BD08B5BC
:1027AC0013460A46002100F02BFA002008BD08B59C
:1027BC0013460A46002100F031FA002008BD08B586
:1027CC000423C0F8F43100231A46194600F018FA15
:1027DC00002008BD08B50523C0F8F43100231A46C3
:1027EC00194600F01BFA002008BD70B51424102502
:1027FC0094B0224600210CA800F089FB22460DEB78
:10280C000400002100F083FB2A46002101A800F0FF
:10281C007EFB01244FF480330226CDE90A43CDE937
:10282C0011634FF480130AA813930E94FEF70AFA5F
:10283C000F234FF48062CDE905360023214605A80D
:10284C00CDE907320993FEF7C3FB4FF4800301A8CF
:10285C0001950493FEF76CFC14B070BD00B589B003
:10286C00FDF790FCFFF7C1FF00F0A2FA1022002147
:10287C000DEB020000F04BFB184B4FF400519A6922
:10288C00174842F010029A619A6902F01002019204
:10289C00019A9A6942F020029A619A6902F0200228
:1028AC000292029A9A6942F004029A619B69002290
:1028BC0003F004030393039BFDF7D0FD4FF4005288
:1028CC0001230021CDE9042302230548CDE9061399
:1028DC0004A9FDF7E3FC00F05FF8FEE700100240EE
:1028EC0000100140704700000E4B82B09A6942F014
:1028FC0001029A619A6902F001020092009ADA6967
:10290C0042F08052DA61DB69074A03F0805301938D
:10291C00019B536823F0E06343F00073536002B0F3
:10292C00704700BF00100240000001407047FEE7F6
:10293C00FEE7FEE7FEE7704770477047FDF734BCD3
:10294C000148FDF7A1BE00BFD80500200F4B1A6847
:10295C0042F001021A6059680D4A0A405A601A681E
:10296C0022F0847222F480321A601A6822F48022D7
:10297C001A605A6822F4FE025A604FF41F029A60E1
:10298C004FF00062034B9A60704700BF001002408A
:10299C000000FFF800ED00E008B500220E490F48DA
:1029AC00FFF71BFC08B1FFF79DFF0D490B48FFF724
:1029BC0029FC08B1FFF796FF0A490848FFF7B3F85E
:1029CC0008B1FFF78FFF0548FFF723FC18B1BDE8EE
:1029DC000840FFF787BF08BDE4000020B4030020C7
:1029EC00740000200001002007B50E4B02689A42CB
:1029FC0015D103F5DA33DA69142042F40002DA61F6
:102A0C000022DB69114603F400030193019BFDF7DF
:102A1C00EFFB142003B05DF804EBFDF71DBC03B015
:102A2C005DF804FB005C004000F22C41D0F85C0423
:102A3C00FFF706BC00EB4113D3F83C22D0F85C0442
:102A4C00FFF72BBC00EB4113DA6BD0F85C04FFF7FB
:102A5C0056BCD0F85C04FFF7D2BC836810B5022BCF
:102A6C00044601D0FFF73EFFD4F85C040121FFF7C8
:102A7C00B4FCD4F85C04BDE81040FFF78FBC000038
:102A8C0010B50446D0F85C04FFF7AAFCA36923B187
:102A9C00024A136943F00603136110BD00ED00E018
:102AAC00D0F85C04FFF7A5BC082310B5184A0446FF
:102ABC001848C0E90023022383600023C0F85C445B
:102ACC00C4F82002C0E906330362FDF7D0FC08B15C
:102ADC00FFF708FF002218231146D4F82002FEF756
:102AEC0097F8582300228021D4F82002FEF790F8A2
:102AFC00982300228121D4F82002FEF789F8D823EC
:102B0C0000220121D4F82002FEF782F8002010BD2B
:102B1C00005C0040D805002008B5D0F82002FDF775
:102B2C000FFD032896BF024B0220185C08BD00BFA6
:102B3C00832F000810B51C46D0F8200213462246FD
:102B4C00FDF729FD032896BF014B0220185C10BD30
:102B5C00832F000808B5D0F82002FDF73FFD0328AD
:102B6C0096BF024B0220185C08BD00BF832F0008E3
:102B7C0008B5D0F82002FEF732F8032896BF024BB6
:102B8C000220185C08BD00BF832F000808B5D0F8E0
:102B9C002002FDF7D9FF032896BF024B0220185CD8
:102BAC0008BD00BF832F000808B5D0F82002FDF740
:102BBC00F3FF032896BF024B0220185C08BD00BF30
:102BCC00832F00080A06D0F8203245BF01F07F01A0
:102BDC0003EB411303EB411393F82A0058BF93F80E
:102BEC002A02704708B5D0F82002FDF7C0FC032874
:102BFC0096BF024B0220185C08BD00BF832F000853
:102C0C0008B5D0F82002FDF729FD032896BF024B2A
:102C1C000220185C08BD00BF832F000808B5D0F84F
:102C2C002002FDF7FCFC032896BF024B0220185C27
:102C3C0008BD00BF832F000808B5D0F82002FDF7AF
:102C4C0006FD08BD004870474001002070477047E2
:102C5C00122301480B807047B00000200423014868
:102C6C000B807047C4000020002370B51E46050F72
:102C7C00ECB2092D94BF3034373401F8134001EB1A
:102C8C00430401336670DCB2A2424FEA0010EED866
:102C9C0070BD00001A2310B50B80094B186808335F
:102CAC001B68C0180AD0074B08221C680649FFF79E
:102CBC00DBFF042205492046FFF7D6FF044810BD70
:102CCC00E8F7FF1FECF7FF1FCA000020DA00002016
:102CDC00C800002010B5044C0A4604482146FFF7F2
:102CEC0035FD204610BD00BF380A002046300008D4
:102CFC0010B5044C0A4604482146FFF727FD204630
:102D0C0010BD00BF380A00205930000810B5044C23
:102D1C000A4604482146FFF719FD204610BD00BFA6
:102D2C00380A00206C30000810B5044C0A460448E0
:102D3C002146FFF70BFD204610BD00BF380A0020CE
:102D4C0077300008002070471E230B604FF400738F
:102D5C0000201380704700207047000008B506481B
:102D6C0000EB42205A0200F0C7F84FF40051034820
:102D7C00FDF779FB002008BD380C00200010014045
:102D8C0008B50846064901EB42215A0200F0B4F896
:102D9C004FF400510348FDF766FB002008BD00BF4F
:102DAC00380C0020001001400020704700207047B4
:102DBC0038B54FF470520021244800F0A8F8234A8B
:102DCC00234B114603F13C0053F8044B834242F869
:102DDC00044BF9D11B881380552381F8FE31AA23AB
:102DEC001C4A81F8FF3110681B4BC1F800021079A6
:102DFC001871104650F8135D03F50873C1F80054B0
:102E0C00456843F81C5C0589807A23F8185C03F844
:102E1C00160C082081F80B04511D213251F8040BBB
:102E2C00914243F8040BF9D10A781A700B4B0C4AF7
:102E3C0003F1380153F8040B8B4242F8040BF9D11F
:102E4C0019889B781180937038BD00BF380C002016
:102E5C00872F0008C52F0008380E00208530000889
:102E6C0038120020002103E00B4B5B584350043117
:102E7C000A480B4B42189A42F6D30A4A02E0002346
:102E8C0042F8043B084B9A42F9D3FFF75FFD00F080
:102E9C000FF8FFF7E3FC7047C83000080000002073
:102EAC00200100202001002038480020FEE700000F
:102EBC0070B500250C4E0D4CA41BA410A54209D1D5
:102ECC0000F02EF800250A4E0A4CA41BA410A542B3
:102EDC0005D170BD56F8253098470135EEE756F808
:102EEC00253098470135F2E7C0300008C0300008A3
:102EFC00C0300008C430000810B5431E0A4491428B
:102F0C0000D110BD11F8014B03F8014FF7E7034650
:102F1C000244934200D1704703F8011BF9E700000B
:102F2C00F8B500BFF8BC08BC9E467047F8B500BFAA
:082F3C00F8BC08BC9E4670477A
:102F440002030405060708090A0B0C0D0E0F1010E6
:102F54000006000000000000000000000000000067
:102F64000000000300808300000000000000000156
:102F7400020304060708090000000001020304001C
:102F8400020102EBFE904D53444F53352E300002A4
:102F94000101000110001E00F801003F00FF0000C5
:102FA40000000000000000800029FECAFECA53543D
:102FB4004D5F52414D4449534B46415431322020D8
:102FC40020F8FFFFFF0F5445585446494C455458C8
:102FD4005420000000000000000000000000000079
:102FE40002003B008002021F00000053544D2020C9
:102FF40020202050726F64756374202020202020CC
:10300400202020302E303153544D3332204375620A
:10301400654D58204D6173732053746F72616765F9
:10302400204465766963652052616D204469736B41
:10303400202D20646F6E6520627920776567690DA5
:103044000A0053544D6963726F656C656374726FE3
:103054006E6963730053544D3332204D6173732092
:1030640053746F72616765004D534320436F6E66FE
:103074006967004D534320496E74657266616365E8
:103084000053544D333220437562654D58204D61D1
:1030940073732053746F7261676520446576696346
:1030A400652052616D204469736B202D20646F6E1E
:0C30B4006520627920776567690D0A00CD
:0430C00031010008D2
:0430C4000D010008F2
:1030C800010000001000000009022000010104C0F6
:1030D80032090400000208065005070581020002B3
:1030E800000705010200020009022000010104C0D6
:1030F8003209040000020806500507058102400055
:10310800000705010240000009072000010104C072
:103118003209040000020806500507058102400034
:1031280000070501024000000A06000200000040F6
:1031380001000000D11900081D1A0008491A0008EA
:1031480000000000000000001F1B0008291B0008E9
:10315800000000000000000000000000A1190008A5
:10316800AD190008B9190008C519000800A24A04D9
:10317800120100020000004083042A5700020102E5
:1031880003010000040309041A0300000000000002
:103198000000000000000000000000000000000027
:1031A800000000005D2C0008692C0008E12C0008D4
:1031B800FD2C0008A12C0008192D0008352D000849
:1031C800512D0008552D0008B92D0008B52D00080F
:1031D8008D2D0008692D0008632D0008E72F0008D1
:0400000508002E7150
:00000001FF
